{"address":"0x5D74A616d9e5620513BFcF938B1cD7b55E86d109","bytecode":"0x608060405234801561001057600080fd5b5060405161041d38038061041d83398101604081905261002f91610054565b600080546001600160a01b0319166001600160a01b0392909216919091179055610084565b60006020828403121561006657600080fd5b81516001600160a01b038116811461007d57600080fd5b9392505050565b61038a806100936000396000f3fe60806040526004361061004a5760003560e01c806312065fe01461004f5780634162169f1461006f578063d0e30db0146100a7578063f3fef3a3146100b1578063f4871268146100d1575b600080fd5b34801561005b57600080fd5b506040514781526020015b60405180910390f35b34801561007b57600080fd5b5060005461008f906001600160a01b031681565b6040516001600160a01b039091168152602001610066565b6100af6100f1565b005b3480156100bd57600080fd5b506100af6100cc3660046102e1565b610117565b3480156100dd57600080fd5b506100af6100ec36600461030b565b610201565b306000908152600160205260408120805434929061011090849061032d565b9091555050565b6000546001600160a01b031633146101725760405162461bcd60e51b81526020600482015260196024820152784f6e6c792044414f2063616e2065786563757465207468697360381b60448201526064015b60405180910390fd5b306000908152600160205260409020548111156101c65760405162461bcd60e51b8152602060048201526012602482015271496e73756666696369656e742066756e647360701b6044820152606401610169565b6040516001600160a01b0383169082156108fc029083906000818181858888f193505050501580156101fc573d6000803e3d6000fd5b505050565b6000546001600160a01b031633146102575760405162461bcd60e51b81526020600482015260196024820152784f6e6c792044414f2063616e2065786563757465207468697360381b6044820152606401610169565b6001600160a01b0381166102a35760405162461bcd60e51b8152602060048201526013602482015272496e76616c69642044414f206164647265737360681b6044820152606401610169565b600080546001600160a01b0319166001600160a01b0392909216919091179055565b80356001600160a01b03811681146102dc57600080fd5b919050565b600080604083850312156102f457600080fd5b6102fd836102c5565b946020939093013593505050565b60006020828403121561031d57600080fd5b610326826102c5565b9392505050565b8082018082111561034e57634e487b7160e01b600052601160045260246000fd5b9291505056fea264697066735822122009c74b40a988eab2793f9981ad31871730ae5083c9cff136ee5c9a4dbcb52a7b64736f6c63430008120033","abi":[{"inputs":[{"internalType":"address","name":"_dao","type":"address"}],"stateMutability":"nonpayable","type":"constructor"},{"inputs":[],"name":"dao","outputs":[{"internalType":"address","name":"","type":"address"}],"stateMutability":"view","type":"function"},{"inputs":[],"name":"deposit","outputs":[],"stateMutability":"payable","type":"function"},{"inputs":[],"name":"getBalance","outputs":[{"internalType":"uint256","name":"","type":"uint256"}],"stateMutability":"view","type":"function"},{"inputs":[{"internalType":"address","name":"_newDAO","type":"address"}],"name":"transferDAORole","outputs":[],"stateMutability":"nonpayable","type":"function"},{"inputs":[{"internalType":"address","name":"_to","type":"address"},{"internalType":"uint256","name":"_amount","type":"uint256"}],"name":"withdraw","outputs":[],"stateMutability":"nonpayable","type":"function"}]}